{"abi":[{"type":"function","name":"price","inputs":[],"outputs":[{"name":"","type":"uint256","internalType":"uint256"}],"stateMutability":"view"}],"bytecode":{"object":"0x6080604052670de0b6b3a76400005f553480156019575f5ffd5b5060ac8060255f395ff3fe6080604052348015600e575f5ffd5b50600436106026575f3560e01c8063a035b1fe14602a575b5f5ffd5b60306044565b604051603b9190605f565b60405180910390f35b5f5481565b5f819050919050565b6059816049565b82525050565b5f60208201905060705f8301846052565b9291505056fea2646970667358221220e887e2f9fe5cb965ee035f5df79c71bde9a2cd3fdb9c21202f0123dba15024b064736f6c63430008210033","linkReferences":{}},"methodIdentifiers":{"price()":"a035b1fe"},"id":0}