{"abi":[{"type":"constructor","inputs":[{"name":"_oracle","type":"address","internalType":"address"}],"stateMutability":"nonpayable"},{"type":"function","name":"borrow","inputs":[{"name":"amount","type":"uint256","internalType":"uint256"}],"outputs":[],"stateMutability":"nonpayable"},{"type":"function","name":"collateral","inputs":[{"name":"","type":"address","internalType":"address"}],"outputs":[{"name":"","type":"uint256","internalType":"uint256"}],"stateMutability":"view"},{"type":"function","name":"deposit","inputs":[],"outputs":[],"stateMutability":"payable"},{"type":"function","name":"loans","inputs":[{"name":"","type":"address","internalType":"address"}],"outputs":[{"name":"","type":"uint256","internalType":"uint256"}],"stateMutability":"view"},{"type":"function","name":"oracle","inputs":[],"outputs":[{"name":"","type":"address","internalType":"contract IStaleOracle"}],"stateMutability":"view"}],"bytecode":{"object":"0x608060405234801561000f575f5ffd5b5060405161080c38038061080c833981810160405281019061003191906100d5565b8060025f6101000a81548173ffffffffffffffffffffffffffffffffffffffff021916908373ffffffffffffffffffffffffffffffffffffffff16021790555050610100565b5f5ffd5b5f73ffffffffffffffffffffffffffffffffffffffff82169050919050565b5f6100a48261007b565b9050919050565b6100b48161009a565b81146100be575f5ffd5b50565b5f815190506100cf816100ab565b92915050565b5f602082840312156100ea576100e9610077565b5b5f6100f7848285016100c1565b91505092915050565b6106ff8061010d5f395ff3fe608060405260043610610049575f3560e01c806373b4086b1461004d5780637dc0d1d014610089578063a5fdc5de146100b3578063c5ebeaec146100ef578063d0e30db014610117575b5f5ffd5b348015610058575f5ffd5b50610073600480360381019061006e91906103ef565b610121565b6040516100809190610432565b60405180910390f35b348015610094575f5ffd5b5061009d610136565b6040516100aa91906104a6565b60405180910390f35b3480156100be575f5ffd5b506100d960048036038101906100d491906103ef565b61015b565b6040516100e69190610432565b60405180910390f35b3480156100fa575f5ffd5b50610115600480360381019061011091906104e9565b61016f565b005b61011f61033d565b005b6001602052805f5260405f205f915090505481565b60025f9054906101000a900473ffffffffffffffffffffffffffffffffffffffff1681565b5f602052805f5260405f205f915090505481565b5f60025f9054906101000a900473ffffffffffffffffffffffffffffffffffffffff1673ffffffffffffffffffffffffffffffffffffffff1663a035b1fe6040518163ffffffff1660e01b8152600401602060405180830381865afa1580156101da573d5f5f3e3d5ffd5b505050506040513d601f19601f820116820180604052508101906101fe9190610528565b90505f670de0b6b3a7640000825f5f3373ffffffffffffffffffffffffffffffffffffffff1673ffffffffffffffffffffffffffffffffffffffff1681526020019081526020015f20546102529190610580565b61025c91906105ee565b9050808311156102a1576040517f08c379a000000000000000000000000000000000000000000000000000000000815260040161029890610678565b60405180910390fd5b8260015f3373ffffffffffffffffffffffffffffffffffffffff1673ffffffffffffffffffffffffffffffffffffffff1681526020019081526020015f205f8282546102ed9190610696565b925050819055503373ffffffffffffffffffffffffffffffffffffffff166108fc8490811502906040515f60405180830381858888f19350505050158015610337573d5f5f3e3d5ffd5b50505050565b345f5f3373ffffffffffffffffffffffffffffffffffffffff1673ffffffffffffffffffffffffffffffffffffffff1681526020019081526020015f205f8282546103889190610696565b92505081905550565b5f5ffd5b5f73ffffffffffffffffffffffffffffffffffffffff82169050919050565b5f6103be82610395565b9050919050565b6103ce816103b4565b81146103d8575f5ffd5b50565b5f813590506103e9816103c5565b92915050565b5f6020828403121561040457610403610391565b5b5f610411848285016103db565b91505092915050565b5f819050919050565b61042c8161041a565b82525050565b5f6020820190506104455f830184610423565b92915050565b5f819050919050565b5f61046e61046961046484610395565b61044b565b610395565b9050919050565b5f61047f82610454565b9050919050565b5f61049082610475565b9050919050565b6104a081610486565b82525050565b5f6020820190506104b95f830184610497565b92915050565b6104c88161041a565b81146104d2575f5ffd5b50565b5f813590506104e3816104bf565b92915050565b5f602082840312156104fe576104fd610391565b5b5f61050b848285016104d5565b91505092915050565b5f81519050610522816104bf565b92915050565b5f6020828403121561053d5761053c610391565b5b5f61054a84828501610514565b91505092915050565b7f4e487b71000000000000000000000000000000000000000000000000000000005f52601160045260245ffd5b5f61058a8261041a565b91506105958361041a565b92508282026105a38161041a565b915082820484148315176105ba576105b9610553565b5b5092915050565b7f4e487b71000000000000000000000000000000000000000000000000000000005f52601260045260245ffd5b5f6105f88261041a565b91506106038361041a565b925082610613576106126105c1565b5b828204905092915050565b5f82825260208201905092915050565b7f65786365656473206d61780000000000000000000000000000000000000000005f82015250565b5f610662600b8361061e565b915061066d8261062e565b602082019050919050565b5f6020820190508181035f83015261068f81610656565b9050919050565b5f6106a08261041a565b91506106ab8361041a565b92508282019050808211156106c3576106c2610553565b5b9291505056fea26469706673582212201763747cb13840366cd2f10dc8d7e76010ac6b6002c98922c6be409c03538d3364736f6c63430008210033","linkReferences":{}},"methodIdentifiers":{"borrow(uint256)":"c5ebeaec","collateral(address)":"a5fdc5de","deposit()":"d0e30db0","loans(address)":"73b4086b","oracle()":"7dc0d1d0"},"id":0}